:020000040800F2
:10000000E0040020E9160008D1150008D315000807
:10001000D5150008D7150008D91500080000000004
:10002000000000000000000000000000DB150008D8
:10003000DD15000800000000DF150008E1150008CC
:100040001D170008211700082517000829170008A8
:100050002D17000831170008351700083917000858
:100060003D17000841170008451700084917000808
:100070004D17000851170008E5150008EB1500089A
:1000800055170008591700085D1700086117000888
:1000900065170008691700086D1700087117000838
:1000A00075170008791700087D17000881170008E8
:1000B00085170008891700088D1700089117000898
:1000C00095170008991700089D170008A117000848
:1000D000A5170008F1150008A9170008AD170008BA
:1000E000B1170008B5170008B9170008BD170008B8
:1000F000C1170008C5170008C9170008CD17000868
:10010000D1170008D5170008D9170008DD17000817
:10011000E1170008E5170008E9170008ED170008C7
:10012000F1170008F5170008F9170008FD17000877
:1001300038B5040001D1012032BD00F026F808B91D
:1001400000F014F800F017F800F023F8FFE7416121
:1001500000F001F832BD2068C16841F40051C1606F
:100160000020686020216970A97070470021297003
:10017000204600F084BA242068702068C16821F409
:100180000051C160204600F024BA04F13C056878B3
:1001900070472068016921F490410161206841693C
:1001A00021F02A0170472DE9F843054605F13C0688
:1001B0000C46707820281746994642D10CB1380079
:1001C00001D101203EE0307801283AD00121317080
:1001D000002070602122727000F0CAFAAF8480465D
:1001E000EF84A868B0F5805F04BF286900280EBFBF
:1001F0002746204600270021317004460EE014F8FF
:10020000012B426007E02868002CF8D137F8021B68
:10021000C1F308014160E88C411EE9844346E88C43
:10022000CDF8009000280FD000228021284600F051
:1002300025F90028E7D0032004E02020707000207A
:1002400000E00220BDE8F28300224021284600F0B1
:1002500015F90028F1D0EEE72068C16821F01001FF
:10026000C1607047416921F040014161A06B704756
:100270007CB5044622681168D568536911F00F00F7
:1002800007D188065FD5AB065DD52046BDE8764030
:1002900044E1D80702D415F4907F54D0C80705D59F
:1002A000EA0503D5206C40F001002064480705D51D
:1002B000DA0703D5206C40F002002064880705D5DA
:1002C000DA0703D5206C40F004002064080707D546
:1002D000AA0601D4D80703D5226C42F00802226492
:1002E000206C00282ED0880604D5A90644BF2046DD
:1002F00000F014F920684069216C0A0701D4400617
:100300001BD5204600F0ECF8206841694A060FD55D
:10031000FFF7A8FF60B10FF2F9114163A06B00F085
:1003200092FA00280ED0A06B416BBDE87C400847D4
:100330002046BDE8764000F0F5BB204600F0F2FB19
:100340000020206473BD206B012804F13D0353D1CC
:10035000C80651D5EE064FD50021009115680095CD
:100360005168009100985169480624D5A16B08682E
:10037000406880B200287AD0A58DA84277DAE0855F
:100380008869202813D0D06820F48070D06000F0F5
:100390006FF82068416921F04001416120205870C8
:1003A00000212163FFF758FFA06B00F027FAA18D11
:1003B000E08D091A1AE0A08DE18D411AE08D002828
:1003C0001CBF88B2002852D0D06820F49070D06052
:1003D0002068426952085200426120205870002271
:1003E00022632068C26822F01002C2602046BDE885
:1003F0007C4089B200F097BB080629D52E0627D588
:100400001878212833D1A068B0F5805F04BF206937
:10041000002808D1206A0188C1F308015160206AD0
:10042000811C216204E0206A411C21620078506036
:10043000E08C401EE08480B2C8B92068C16821F019
:100440008001C1602068C16841F04001C16073BD96
:1004500048060CD569060AD5D06820F04000D06067
:10046000202119702046BDE8764000F05DBB73BDC9
:100470002068416949084900416170472DE9F04110
:10048000069C05460E4690461F4628680168314086
:10049000B1420CBF01200020404517D114F1010FDB
:1004A000F3D024B100F064F9C01B8442EDD2286877
:1004B000C16821F4D07100F00CF805F13C00202156
:1004C0004170817000210170032000E00020BDE830
:1004D000F081C1602868416949084900416170475D
:1004E0000168CA6822F49072CA6001684A695208B9
:1004F00052004A61016B012904D10168CA6822F0E7
:100500001002CA60202180F83E100022026370476A
:10051000406A0021C185C18400F004BB1CB590F87D
:100520003E10222953D18168826AB1F5805F0AD1D9
:10053000016969B903685968C1F308011180826AC9
:10054000911C81620FE0002904BF0169002902D1DA
:100550000368596803E00168496801F07F01117080
:10056000816A4A1C8262C18D491EC18589B261BB04
:100570000168CA6822F02002CA600168CA6822F4D1
:100580008072CA6001684A69520852004A6120219B
:1005900080F83E10026B012A15D100210163016829
:1005A000CA6822F01002CA6002681168CB0606D53C
:1005B0000024009413680093526800920099818D82
:1005C00000F0B1FA01E000F0B0FA002016BD022000
:1005D00016BD10B5044622681169E06821F4405147
:1005E00001431161D3681849A0680B402169034396
:1005F00060690B430343D3605169A06921F44071E2
:100600000143516111498A4202D100F0C8FC01E066
:1006100000F0BDFC6268192148439200B0FBF2F182
:100620006423B1FBF3F203FB121109013231B1FB78
:10063000F3F000F0F00101EB0211226800F00F006E
:100640004018906010BD0000F3E9FFFF0038014042
:1006500080B54148414901604FF4E13200230C214B
:1006600042608360C360036141618361C361FFF7DE
:100670005FFD18B1BDE8014000F045BD01BD78B592
:1006800085B0044601A8102100F048FD2568334ECE
:10069000B5425ED13248334D0168334E41F480415A
:1006A0000160026802F4804200920099026842F000
:1006B000040202604FF40071006800F00400009032
:1006C000022200980191029203210491284601A977
:1006D00000F028FD4FF48060002101900291039109
:1006E000284601A900F01EFD204D05F114003060E0
:1006F00000218020F0607160B16031610020706184
:100700002021F061B161304600F038F808B100F006
:10071000FAFC10200021A663B064F16480203065EB
:100720007165B165F16531667462756406F1440006
:1007300000F024F808B100F0E6FC06F14400606324
:10074000B46600220021252000F0F8FD252000F0ED
:1007500012FE06B070BD0000980000200038014075
:100760001810024000080140100000204400024020
:1007700001484068704700BF0000002070B508B90C
:10078000012070BD0368DFF85853AB4200F1380414
:100790000BD2DFF85013CA181426B2FBF6F29200FF
:1007A000DFF84453A26065600AE0DFF84013CA181E
:1007B0001425B2FBF5F29200DFF83413A2606160F9
:1007C000022280F821201D68416882686FF30D15B0
:1007D0000D43C168154302690D43416915438269A0
:1007E0000D43C16915430D431D60002323600122A1
:1007F00080F8212080F82030002070BD10B590F8DE
:100800002110022900F1380206D0042313600021D0
:1008100080F82010012010BD01680B6823F00E0342
:100820000B60012301680C68640864000C60916827
:1008300052688B4053600121002280F8211080F81B
:100840002020002010BDF8B590F821200024022AB5
:1008500000F1340103D00420486001245FE0026805
:10086000DFF89062136823F00E0313604FF4807773
:10087000026815686D086D0015604FF480320368DA
:10088000B3424FF4805519D9DFF85462B34208BF20
:10089000012210D0DFF86062B34208BF10220AD0F4
:1008A000DFF85862B34208BF3A4604D0DFF850720E
:1008B000BB4208BF2A46DFF84C3227E0DFF848C2C7
:1008C00063451CD0DFF844E273451AD0DFF840C21C
:1008D000634518D0DFF83C72BB420EBF2A46DFF8F2
:1008E0003852AB4210D0DFF83472BB4208BF4FF42D
:1008F000801209D0B34207D14FF0807204E0012288
:1009000002E0102200E03A46DFF814321A600122B9
:1009100080F8212080F82040096801B188472046EE
:10092000F2BD2DE9F84F00F1280204275169714EFC
:100930000B680468DFF8D0B125689169DFF8C4C19D
:10094000DFF8BCE1DFF8B481DFF8AC91DFF890A10B
:100950008DF800109DF800108F403B424AD0690787
:1009600048D52368990603D4236823F00403236041
:100970004FF480230168B1424FF480444FF4806506
:1009800011D9514508BF04230AD0494508BF402367
:1009900006D0414508BF2B4602D0714508BF23460B
:1009A000CCF8003020E0594517D0584FB94216D046
:1009B000574FB94215D0574DA9420EBF2346564C4A
:1009C000A1420FD0554DA94208BF4FF4800309D072
:1009D000B14207D14FF0806304E0042302E04023DA
:1009E00000E02B464E490B605168002975D0BDE8E8
:1009F000F44F08479DF8001002278F403B424FD02C
:100A0000A9074DD52368990606D4236823F00A0365
:100A10002360012180F821104FF400330168B142B6
:100A20004FF400544FF4007511D9514508BF02230B
:100A30000AD0494508BF202306D0414508BF2B46B0
:100A400002D0714508BF2346CCF8003020E059455C
:100A500017D02E4FB94216D02D4FB94215D02D4D7B
:100A6000A9420EBF23462C4CA1420FD02B4DA942C8
:100A700008BF4FF4001309D0B14207D14FF0007303
:100A800004E0022302E0202300E02B4624490B600F
:100A9000002380F820301168F9B1BDE8F44F084711
:100AA0009DF8001008268E40334216D0290714D531
:100AB000236823F00E0323600124916953698C405D
:100AC0005C600121116180F82110002180F8201064
:100AD000916811B1BDE8F44F0847BDE8F18F0000FF
:100AE00008040240F8FFFDBF00000240F8FBFDBF14
:100AF00000040240800002401C0402403004024016
:100B00004404024004040240080002401C00024069
:100B10003000024044000240580002406C00024095
:100B20000400024070477047704770472DE9F84352
:100B3000040016D02078DFF87C64C10713D57068F4
:100B400000F00C00042807D0706800F00C000828A2
:100B500040D17068C1033DD53068810303D560681A
:100B6000002800F0F4802078DFF85874810719D548
:100B7000706810F00C0F07D0706800F00C000828A7
:100B800060D17068C1035DD43068810703D52069E6
:100B9000012840F0DC803168606921F0F80141EA09
:100BA000C00131602178080770D5A069DFF81814FA
:100BB000002865D001220A60FFF7DAFD0546706A59
:100BC000810700F1C680FFF7D3FD401B0228F6D94C
:100BD000032035E16068B0F5803F04D1306840F40F
:100BE0008030306014E008B930680AE0B0F5A02F1A
:100BF000306806D140F480203060316841F48031A3
:100C000005E020F480303060316821F480213160CB
:100C1000606858B1FFF7ACFD054630688103A2D487
:100C2000FFF7A6FD401B6528F7D3D1E7FFF7A0FD2E
:100C300005463068810396D5FFF79AFD401B65286D
:100C4000F7D3C5E7206970B101213960FFF790FD46
:100C500005463068810700F1B680FFF789FD401B2B
:100C60000228F6D9B4E73860FFF782FD05463168FF
:100C7000880797D5FFF77CFD401B0228F7D9A7E727
:100C80000860FFF775FD0546706A810770D5FFF7AC
:100C90006FFD401B0228F7D99AE708B9306A09E0CE
:100CA0000528306A06D140F004003062306A40F016
:100CB000010005E0400840003062306A20F0040086
:100CC000306241F28938E06868B1FFF751FD814632
:100CD000306A810700F18480FFF74AFDA0EB09002C
:100CE0004045F5D374E7FFF743FD8146306A81073D
:100CF00076D5FFF73DFDA0EB09004045F6D367E749
:100D0000FFF736FD401B02287BD961E7FFF730FD76
:100D1000001B022840F28F805AE700F093F8044647
:100D20003068810140F18B80FFF722FD001B022813
:100D3000F6D94DE701280AD07068226A00F48031A4
:100D4000914202BF00F47010616A884277D001209E
:100D500076E0DFF864020168C9084FF47A72B1FBEB
:100D6000F2F2009200BF0098411E00280091F9D1D4
:100D70002078410739D5F0690025C10009D4F06910
:100D800040F08050F0610125F06900F08050009043
:100D90000098DFF83882D8F80000C1051BD4D8F8D5
:100DA000000040F48070C8F80000FFF7E1FC8146C5
:100DB000D8F80000C1050ED4FFF7DAFCA0EB09005B
:100DC0006528F5D304E73068616920F0F80040EA4F
:100DD000C1003060E6E6E06801287FF45EAF65E7B9
:100DE0001DB1F06920F08050F061E06938B371689E
:100DF00001F00C0108299DD002288ED100F022F8C4
:100E00000546306881013FF57BAF206AB0F5803F31
:100E100005D17168A06821F40031014371607268E6
:100E2000206A616A22F4741202430A43726001204C
:100E300000F009F80446306881017FF567AF0020B3
:100E4000BDE8F28300203866FFF792BC2DE9F0413F
:100E50000400884672D05E4E00F077F802D200F0AF
:100E60006FF86BD12068534D810712D5400703D529
:100E7000696841F4E06169602078010703D568681A
:100E800040F4605068606968A06821F0F001014397
:100E900069602178C80749D56068012802D12968AE
:100EA0008A0303E00228296802D18A0102D445E0BE
:100EB0008A0743D56968890840EA81006860FFF7BE
:100EC00057FC07466868616800F00C00B0EB810FC2
:100ED0002CD0FFF74DFCC01B41F289318842F1D381
:100EE000032021E02078410705D56A68E06822F4F4
:100EF000E06202436A602178080706D569682069C4
:100F000021F4605141EAC001696000F023F86A6889
:100F10003049294BC2F30312895CC8401860284845
:100F2000006800F053FA0020BDE8F081306800F05E
:100F300007008045D6D200F003F8D3D00120F3E7B4
:100F40003168C90848EAC1013160306800F0070023
:100F500040457047204919480A6802F00C03082BE5
:100F600000D0704710B500BF1EA4C2F38343D20364
:100F7000E35C08D5096858431EA3C1F340415A5C9D
:100F8000B0FBF2F010BD18461449484310BD0A48A2
:100F9000114A006813681249C3F3022206E00648AA
:100FA0000D4A006813680E49C3F3C222895CC84029
:100FB00070470000001002400C00002000127A0070
:100FC00008000020000042428004424200700040BD
:100FD00000200240D81600080410024000093D001D
:100FE0001417000802030405060708090A0B0C0D74
:100FF0000E0F1010010230B4002513E050F8042B3E
:10100000D30744BFA9F101039A18091F042942F824
:10101000045BFAD213468C0744BF15809B1CC9079A
:1010200048BF1D7050F8041B0029E7D130BC704741
:10103000F8B500F0EBF900F03BF800F0F9F900F03A
:1010400055FAFFF705FB174C2FA5174E174F082130
:10105000384600F031F90128F9D10122202130462B
:1010600000F030F900222021384600F02BF94FF42F
:101070007A7000F05BFA4FF6FF7310222946204683
:10108000FFF791F800222021304600F01BF90122E1
:101090002021384600F016F94FF47A7000F046FA35
:1010A000D5E7000098000020000C01400018014026
:1010B00000B58FB005A8282100F030F8684614214B
:1010C00000F02CF84FF480310022069107920D9128
:1010D00001200590099002224FF4E0110C920E912C
:1010E00005A8FFF723FD022101910F204FF4806135
:1010F0000090002203910292049202216846FFF7B9
:10110000A5FE0FB000BD704768656C6C6F207769F5
:101110006E646F7773210D0A00000000002200F05A
:1011200019BA00002DE9F8470027BE46674A684B08
:101130004FF00F0882460BE0D6683040D06006E0E2
:1011400094604C68A402F7D5D0680643D6607F1C33
:101150000E6836FA07F000F0AD80012000FA07F5BE
:101160002E40AE42F3D1486858B301281AD0022865
:101170001FD0032833D0112817D012281DD0554C6A
:10118000A0421CBF544CA0421BD0544CA0421CBFD8
:10119000534CA04215D0534CA0421CBF524CA0420D
:1011A0000FD01EE0D1F80CE01BE0C86800F1040E7F
:1011B00017E0C86800F1080E13E0C86800F10C0ED3
:1011C0000FE0886810B94FF0040E0AE001284FF0D4
:1011D000080E14BFCAF81450CAF8105001E04FF0BE
:1011E000000EB6F5807F03D250464FEA870C05E02B
:1011F000A7F108040AF104004FEA840C046808FA15
:101200000CF5AC430EFA0CF52C4304604868C000A2
:101210009DD51868DFF8D4C040F0010018601C6844
:1012200004F001040094BC000098B8085CF8205059
:1012300004F00C0408FA04F925EA09092C4DAA4522
:1012400008BF002518D02B4DAA4508BF012513D093
:10125000294DAA4508BF02250ED0284DAA4508BF32
:10126000032509D0264DAA4508BF042504D0254DE5
:10127000AA450CBF0525062505FA04F444EA09042D
:101280004CF82040F0434C68E40314684CBF3443EE
:10129000044014604C68A40354684CBF34430440B9
:1012A00054604C689568E4024CBF46EA050400EAC5
:1012B000050445E7BDE8F1878068084018BF0120B4
:1012C000C0B2704702B909040161704700040140CF
:1012D0001810024000001110000012100000211030
:1012E0000000221000003110000032100800014000
:1012F00000080140000C01400010014000140140B2
:1013000000180140001C01400901020002D42948D4
:1013100081547047284B02F00F021A4402F8041C53
:101320007047264B19684FF6FF020002114000F487
:10133000E0600843224908431860704738B51F4BE6
:101340001C68C4F30223C3F10704052C28BF04243E
:101350001D1D072D34BF0023DB1E012505FA04F4F3
:10136000641E2140994005FA03F35B1E1A401143A5
:10137000BDE83440C8E7010007D4012200F01F0196
:10138000104B8A40400943F82020704710B5401E9A
:10139000B0F1807F01D3012010BD0B4C60600F21A4
:1013A0004FF0FF30FFF7B0FF0021A1600720206061
:1013B000002010BD00E400E018ED00E00CED00E0BE
:1013C0000000FA0500E100E010E000E038B50D4D46
:1013D0000D4B2A7804464FF47A711868B1FBF2F28B
:1013E000B0FBF2F0FFF7D2FF50B9102C08D2002268
:1013F00021464FF0FF30FFF7A1FFAC60002032BD67
:10140000012032BD000000200C00002080B50748FC
:10141000016841F0100101600320FFF782FF002006
:10142000FFF7D4FF00F0B0F8002002BD002002401A
:1014300030B585B068461021FFF770FE2348244D73
:10144000046844F0400404600168224C01F040014B
:1014500004910499026842F010020260036803F0EC
:10146000100304930499026842F0040202600368C6
:1014700003F0040304930499026842F00802026036
:101480000122006800F00800049020210498204602
:10149000FFF718FF012220212846FFF713FF18202D
:1014A0000021009001910122029269462046FFF737
:1014B00039FE00F011F82046FFF734FE00F00CF87A
:1014C0002846FFF72FFE05B030BD0000181002407F
:1014D000000C0140001801402021009101220192DE
:1014E00000210291032203926946704780B50E489D
:1014F000016841F0010101600022006800F0010074
:101500000090002100980E20FFF718FF0E20FFF733
:1015100032FF002200210F20FFF710FFBDE802403C
:101520000F20FFF728BF00BF1410024038B5044653
:10153000FFF71EF914F1010F054602D0044908789F
:101540000419FFF715F9401BA042FAD331BD00BFC3
:101550000000002000B500BF1300964694461039E5
:1015600028BFA0E80C50FAD85FEA417C28BF0CC025
:1015700048BF40F8042BC90728BF20F8022B48BFFA
:1015800000F8012B00BD000080B50F48016841F054
:1015900001010160026802F00102009200994268B4
:1015A00042F080524260406800F080500090009805
:1015B0000520FFF7B6FE0548016821F0E06141F023
:1015C0000071016001BD00BF18100240040001401D
:1015D0007047FEE7FEE7FEE7FEE77047704770479B
:1015E00000F010B80448FFF79CB90448FFF799B918
:1015F0000348FEF73DBE000054000020100000200C
:101600009800002002494A68087882184A607047AA
:101610000000002030B450F8041B79B10268436820
:1016200002440830DC0744BFA9F10104E31852F872
:10163000045B43F8045B091FF9D1ECE730BC704749
:1016400010B5074979441831064C7C44163404E03F
:101650000A68081D114488470146A142F8D110BD0F
:1016600008000000280000008FF9FFFFCC000000F8
:1016700010000020000000009DFFFFFF1000000090
:1016800078000000000000200000000000F00DF8CD
:10169000002801D0FFF7D4FFAFF300800020AFF3A4
:1016A0000080FFF7C5FC00F002F80120704700F051
:1016B00001B800000746384600F002F8FBE70000DA
:1016C00080B5AFF30080024A11001820ABBEFBE7E3
:1016D000260002007047000000000000000000002B
:1016E0000102030406070809014880470148004732
:1016F000D5160008091700080100000000000000CE
:10170000100000000024F400AFF30080AFF300806D
:10171000FFF7BCFF0000000001020304FFF7FEBF5B
:10172000FFF7FEBFFFF7FEBFFFF7FEBFFFF7FEBFED
:10173000FFF7FEBFFFF7FEBFFFF7FEBFFFF7FEBFDD
:10174000FFF7FEBFFFF7FEBFFFF7FEBFFFF7FEBFCD
:10175000FFF7FEBFFFF7FEBFFFF7FEBFFFF7FEBFBD
:10176000FFF7FEBFFFF7FEBFFFF7FEBFFFF7FEBFAD
:10177000FFF7FEBFFFF7FEBFFFF7FEBFFFF7FEBF9D
:10178000FFF7FEBFFFF7FEBFFFF7FEBFFFF7FEBF8D
:10179000FFF7FEBFFFF7FEBFFFF7FEBFFFF7FEBF7D
:1017A000FFF7FEBFFFF7FEBFFFF7FEBFFFF7FEBF6D
:1017B000FFF7FEBFFFF7FEBFFFF7FEBFFFF7FEBF5D
:1017C000FFF7FEBFFFF7FEBFFFF7FEBFFFF7FEBF4D
:1017D000FFF7FEBFFFF7FEBFFFF7FEBFFFF7FEBF3D
:1017E000FFF7FEBFFFF7FEBFFFF7FEBFFFF7FEBF2D
:1017F000FFF7FEBFFFF7FEBFFFF7FEBFFFF7FEBF1D
:0400000508001709CF
:00000001FF
